{
  "contractName": "HealthRecord",
  "abi": [
    {
      "anonymous": false,
      "inputs": [
        {
          "indexed": true,
          "internalType": "uint256",
          "name": "recordId",
          "type": "uint256"
        },
        {
          "indexed": false,
          "internalType": "string",
          "name": "patientData",
          "type": "string"
        },
        {
          "indexed": false,
          "internalType": "uint256",
          "name": "timestamp",
          "type": "uint256"
        }
      ],
      "name": "RecordAdded",
      "type": "event"
    },
    {
      "inputs": [
        {
          "internalType": "uint256",
          "name": "",
          "type": "uint256"
        }
      ],
      "name": "records",
      "outputs": [
        {
          "internalType": "uint256",
          "name": "timestamp",
          "type": "uint256"
        },
        {
          "internalType": "string",
          "name": "patientData",
          "type": "string"
        }
      ],
      "stateMutability": "view",
      "type": "function"
    },
    {
      "inputs": [
        {
          "internalType": "string",
          "name": "_patientData",
          "type": "string"
        }
      ],
      "name": "addRecord",
      "outputs": [],
      "stateMutability": "nonpayable",
      "type": "function"
    },
    {
      "inputs": [
        {
          "internalType": "uint256",
          "name": "_index",
          "type": "uint256"
        }
      ],
      "name": "getRecord",
      "outputs": [
        {
          "internalType": "string",
          "name": "",
          "type": "string"
        },
        {
          "internalType": "uint256",
          "name": "",
          "type": "uint256"
        }
      ],
      "stateMutability": "view",
      "type": "function"
    },
    {
      "inputs": [],
      "name": "getRecordsCount",
      "outputs": [
        {
          "internalType": "uint256",
          "name": "",
          "type": "uint256"
        }
      ],
      "stateMutability": "view",
      "type": "function"
    }
  ],
  "bytecode": "0x608060405234801561001057600080fd5b50610883806100206000396000f3fe608060405234801561001057600080fd5b506004361061004c5760003560e01c806303e9e609146100515780633446106714610082578063505158bb146100b3578063d81aa8c4146100d1575b600080fd5b61006b6004803603810190610066919061051d565b6100ed565b6040516100799291906105ce565b60405180910390f35b61009c6004803603810190610097919061051d565b61023d565b6040516100aa929190610639565b60405180910390f35b6100bb6102f9565b6040516100c8919061061e565b60405180910390f35b6100eb60048036038101906100e691906104dc565b610305565b005b6060600080805490508310610137576040517f08c379a000000000000000000000000000000000000000000000000000000000815260040161012e906105fe565b60405180910390fd5b6000808481548110610172577f4e487b7100000000000000000000000000000000000000000000000000000000600052603260045260246000fd5b9060005260206000209060020201604051806040016040529081600082015481526020016001820180546101a590610766565b80601f01602080910402602001604051908101604052809291908181526020018280546101d190610766565b801561021e5780601f106101f35761010080835404028352916020019161021e565b820191906000526020600020905b81548152906001019060200180831161020157829003601f168201915b5050505050815250509050806020015181600001519250925050915091565b6000818154811061024d57600080fd5b906000526020600020906002020160009150905080600001549080600101805461027690610766565b80601f01602080910402602001604051908101604052809291908181526020018280546102a290610766565b80156102ef5780601f106102c4576101008083540402835291602001916102ef565b820191906000526020600020905b8154815290600101906020018083116102d257829003601f168201915b5050505050905082565b60008080549050905090565b6000604051806040016040528042815260200183815250908060018154018082558091505060019003906000526020600020906002020160009091909190915060008201518160000155602082015181600101908051906020019061036b9291906103bc565b505050600160008054905061038091906106e6565b7feed777b92002bcb5f789d19fa7cbca71646fde440201feed074bdcdb0987ca2e82426040516103b19291906105ce565b60405180910390a250565b8280546103c890610766565b90600052602060002090601f0160209004810192826103ea5760008555610431565b82601f1061040357805160ff1916838001178555610431565b82800160010185558215610431579182015b82811115610430578251825591602001919060010190610415565b5b50905061043e9190610442565b5090565b5b8082111561045b576000816000905550600101610443565b5090565b600061047261046d8461069a565b610669565b90508281526020810184848401111561048a57600080fd5b610495848285610724565b509392505050565b600082601f8301126104ae57600080fd5b81356104be84826020860161045f565b91505092915050565b6000813590506104d681610836565b92915050565b6000602082840312156104ee57600080fd5b600082013567ffffffffffffffff81111561050857600080fd5b6105148482850161049d565b91505092915050565b60006020828403121561052f57600080fd5b600061053d848285016104c7565b91505092915050565b6000610551826106ca565b61055b81856106d5565b935061056b818560208601610733565b61057481610825565b840191505092915050565b600061058c600d836106d5565b91507f496e76616c696420696e646578000000000000000000000000000000000000006000830152602082019050919050565b6105c88161071a565b82525050565b600060408201905081810360008301526105e88185610546565b90506105f760208301846105bf565b9392505050565b600060208201905081810360008301526106178161057f565b9050919050565b600060208201905061063360008301846105bf565b92915050565b600060408201905061064e60008301856105bf565b81810360208301526106608184610546565b90509392505050565b6000604051905081810181811067ffffffffffffffff821117156106905761068f6107f6565b5b8060405250919050565b600067ffffffffffffffff8211156106b5576106b46107f6565b5b601f19601f8301169050602081019050919050565b600081519050919050565b600082825260208201905092915050565b60006106f18261071a565b91506106fc8361071a565b92508282101561070f5761070e610798565b5b828203905092915050565b6000819050919050565b82818337600083830152505050565b60005b83811015610751578082015181840152602081019050610736565b83811115610760576000848401525b50505050565b6000600282049050600182168061077e57607f821691505b60208210811415610792576107916107c7565b5b50919050565b7f4e487b7100000000000000000000000000000000000000000000000000000000600052601160045260246000fd5b7f4e487b7100000000000000000000000000000000000000000000000000000000600052602260045260246000fd5b7f4e487b7100000000000000000000000000000000000000000000000000000000600052604160045260246000fd5b6000601f19601f8301169050919050565b61083f8161071a565b811461084a57600080fd5b5056fea264697066735822122038991370a377a316665d453232478bae1413812efd6e8b67cd74149928e8fe1764736f6c63430008000033",
  "immutableReferences": {},
  "source": "// contracts/HealthRecord.sol\r\n// SPDX-License-Identifier: MIT\r\npragma solidity ^0.8.0;\r\n\r\ncontract HealthRecord {\r\n    struct Record {\r\n        uint timestamp;\r\n        string patientData;\r\n    }\r\n\r\n    Record[] public records;\r\n\r\n    event RecordAdded(uint indexed recordId, string patientData, uint timestamp);\r\n\r\n    function addRecord(string memory _patientData) public {\r\n        records.push(Record(block.timestamp, _patientData));\r\n        emit RecordAdded(records.length - 1, _patientData, block.timestamp);\r\n    }\r\n\r\n    function getRecord(uint _index) public view returns (string memory, uint) {\r\n        require(_index < records.length, \"Invalid index\");\r\n        Record memory r = records[_index];\r\n        return (r.patientData, r.timestamp);\r\n    }\r\n\r\n    function getRecordsCount() public view returns (uint) {\r\n        return records.length;\r\n    }\r\n}\r\n",
  "sourcePath": "C:\\Users\\rajes\\OneDrive\\Desktop\\RPM2\\contracts\\HealthRecord.sol",
  "compiler": {
    "name": "solc",
    "version": "0.8.0+commit.c7dfd78e.Emscripten.clang"
  },
  "schemaVersion": "3.4.16",
  "updatedAt": "2025-04-15T18:31:10.622Z",
  "devdoc": {
    "kind": "dev",
    "methods": {},
    "version": 1
  },
  "userdoc": {
    "kind": "user",
    "methods": {},
    "version": 1
  }
}